{
  "contractName": "Permission",
  "abi": [
    {
      "inputs": [],
      "stateMutability": "nonpayable",
      "type": "constructor"
    },
    {
      "inputs": [],
      "name": "admin",
      "outputs": [
        {
          "internalType": "address",
          "name": "",
          "type": "address"
        }
      ],
      "stateMutability": "view",
      "type": "function"
    },
    {
      "inputs": [],
      "name": "allowEveryone",
      "outputs": [
        {
          "internalType": "bool",
          "name": "",
          "type": "bool"
        }
      ],
      "stateMutability": "view",
      "type": "function"
    }
  ],
  "bytecode": "0x608060405234801561001057600080fd5b50336000806101000a81548173ffffffffffffffffffffffffffffffffffffffff021916908373ffffffffffffffffffffffffffffffffffffffff16021790555060008060146101000a81548160ff0219169083151502179055506101768061007a6000396000f3fe608060405234801561001057600080fd5b50600436106100365760003560e01c806326325bd31461003b578063f851a44014610059575b600080fd5b610043610077565b60405161005091906100e7565b60405180910390f35b61006161008a565b60405161006e91906100cc565b60405180910390f35b600060149054906101000a900460ff1681565b60008054906101000a900473ffffffffffffffffffffffffffffffffffffffff1681565b6100b781610102565b82525050565b6100c681610114565b82525050565b60006020820190506100e160008301846100ae565b92915050565b60006020820190506100fc60008301846100bd565b92915050565b600061010d82610120565b9050919050565b60008115159050919050565b600073ffffffffffffffffffffffffffffffffffffffff8216905091905056fea264697066735822122095510f0368fed9521743cc0ed9cf11cb1f42f5db159299df58f849d60ecc7b7964736f6c63430008000033",
  "immutableReferences": {},
  "source": "// SPDX-License-Identifier: MIT\n\npragma solidity ^0.8.0;\n\ncontract Permission {\n    address public admin;\n    bool public allowEveryone;\n\n    constructor() {\n        admin = msg.sender;\n        allowEveryone = false;\n    }\n\n    modifier hasPermission() {\n        require(\n            admin == msg.sender || allowEveryone,\n            \"You don't have permission to access\"\n        );\n        _;\n    }\n\n    modifier onlyAdmin() {\n        require(admin == msg.sender, \"You don't have permission to access\");\n        _;\n    }\n\n    function setPermission(bool isAllowEveryone) internal onlyAdmin() {\n        allowEveryone = isAllowEveryone;\n    }\n}\n",
  "sourcePath": "/Users/Ouu/Documents/coding/projects/dApp/rare-estates-sandbox/contracts/access/Permission.sol",
  "compiler": {
    "name": "solc",
    "version": "0.8.0+commit.c7dfd78e.Emscripten.clang"
  },
  "schemaVersion": "3.3.4",
  "updatedAt": "2021-05-28T10:24:54.530Z",
  "devdoc": {
    "kind": "dev",
    "methods": {},
    "version": 1
  },
  "userdoc": {
    "kind": "user",
    "methods": {},
    "version": 1
  }
}