{
  "contractName": "RareEstateToken",
  "abi": [
    {
      "inputs": [],
      "stateMutability": "nonpayable",
      "type": "constructor"
    },
    {
      "anonymous": false,
      "inputs": [
        {
          "indexed": true,
          "internalType": "address",
          "name": "owner",
          "type": "address"
        },
        {
          "indexed": true,
          "internalType": "address",
          "name": "approved",
          "type": "address"
        },
        {
          "indexed": true,
          "internalType": "uint256",
          "name": "tokenId",
          "type": "uint256"
        }
      ],
      "name": "Approval",
      "type": "event"
    },
    {
      "anonymous": false,
      "inputs": [
        {
          "indexed": true,
          "internalType": "address",
          "name": "owner",
          "type": "address"
        },
        {
          "indexed": true,
          "internalType": "address",
          "name": "operator",
          "type": "address"
        },
        {
          "indexed": false,
          "internalType": "bool",
          "name": "approved",
          "type": "bool"
        }
      ],
      "name": "ApprovalForAll",
      "type": "event"
    },
    {
      "anonymous": false,
      "inputs": [
        {
          "indexed": false,
          "internalType": "uint256",
          "name": "tokenId",
          "type": "uint256"
        },
        {
          "indexed": false,
          "internalType": "address",
          "name": "creator",
          "type": "address"
        },
        {
          "indexed": false,
          "internalType": "string",
          "name": "uri",
          "type": "string"
        },
        {
          "indexed": false,
          "internalType": "address",
          "name": "owner",
          "type": "address"
        }
      ],
      "name": "EstateMinted",
      "type": "event"
    },
    {
      "anonymous": false,
      "inputs": [
        {
          "indexed": false,
          "internalType": "address",
          "name": "from",
          "type": "address"
        },
        {
          "indexed": false,
          "internalType": "address",
          "name": "to",
          "type": "address"
        },
        {
          "indexed": false,
          "internalType": "uint256",
          "name": "tokenId",
          "type": "uint256"
        }
      ],
      "name": "EstateTransferred",
      "type": "event"
    },
    {
      "anonymous": false,
      "inputs": [
        {
          "indexed": true,
          "internalType": "address",
          "name": "from",
          "type": "address"
        },
        {
          "indexed": true,
          "internalType": "address",
          "name": "to",
          "type": "address"
        },
        {
          "indexed": true,
          "internalType": "uint256",
          "name": "tokenId",
          "type": "uint256"
        }
      ],
      "name": "Transfer",
      "type": "event"
    },
    {
      "inputs": [
        {
          "internalType": "uint256",
          "name": "",
          "type": "uint256"
        }
      ],
      "name": "Estates",
      "outputs": [
        {
          "internalType": "uint256",
          "name": "id",
          "type": "uint256"
        },
        {
          "internalType": "address",
          "name": "creator",
          "type": "address"
        },
        {
          "internalType": "string",
          "name": "uri",
          "type": "string"
        }
      ],
      "stateMutability": "view",
      "type": "function",
      "constant": true
    },
    {
      "inputs": [],
      "name": "admin",
      "outputs": [
        {
          "internalType": "address",
          "name": "",
          "type": "address"
        }
      ],
      "stateMutability": "view",
      "type": "function",
      "constant": true
    },
    {
      "inputs": [],
      "name": "allowEveryone",
      "outputs": [
        {
          "internalType": "bool",
          "name": "",
          "type": "bool"
        }
      ],
      "stateMutability": "view",
      "type": "function",
      "constant": true
    },
    {
      "inputs": [
        {
          "internalType": "address",
          "name": "to",
          "type": "address"
        },
        {
          "internalType": "uint256",
          "name": "tokenId",
          "type": "uint256"
        }
      ],
      "name": "approve",
      "outputs": [],
      "stateMutability": "nonpayable",
      "type": "function"
    },
    {
      "inputs": [
        {
          "internalType": "address",
          "name": "owner",
          "type": "address"
        }
      ],
      "name": "balanceOf",
      "outputs": [
        {
          "internalType": "uint256",
          "name": "",
          "type": "uint256"
        }
      ],
      "stateMutability": "view",
      "type": "function",
      "constant": true
    },
    {
      "inputs": [
        {
          "internalType": "uint256",
          "name": "tokenId",
          "type": "uint256"
        }
      ],
      "name": "getApproved",
      "outputs": [
        {
          "internalType": "address",
          "name": "",
          "type": "address"
        }
      ],
      "stateMutability": "view",
      "type": "function",
      "constant": true
    },
    {
      "inputs": [
        {
          "internalType": "address",
          "name": "owner",
          "type": "address"
        },
        {
          "internalType": "address",
          "name": "operator",
          "type": "address"
        }
      ],
      "name": "isApprovedForAll",
      "outputs": [
        {
          "internalType": "bool",
          "name": "",
          "type": "bool"
        }
      ],
      "stateMutability": "view",
      "type": "function",
      "constant": true
    },
    {
      "inputs": [],
      "name": "name",
      "outputs": [
        {
          "internalType": "string",
          "name": "",
          "type": "string"
        }
      ],
      "stateMutability": "view",
      "type": "function",
      "constant": true
    },
    {
      "inputs": [
        {
          "internalType": "uint256",
          "name": "tokenId",
          "type": "uint256"
        }
      ],
      "name": "ownerOf",
      "outputs": [
        {
          "internalType": "address",
          "name": "",
          "type": "address"
        }
      ],
      "stateMutability": "view",
      "type": "function",
      "constant": true
    },
    {
      "inputs": [
        {
          "internalType": "address",
          "name": "from",
          "type": "address"
        },
        {
          "internalType": "address",
          "name": "to",
          "type": "address"
        },
        {
          "internalType": "uint256",
          "name": "tokenId",
          "type": "uint256"
        }
      ],
      "name": "safeTransferFrom",
      "outputs": [],
      "stateMutability": "nonpayable",
      "type": "function"
    },
    {
      "inputs": [
        {
          "internalType": "address",
          "name": "from",
          "type": "address"
        },
        {
          "internalType": "address",
          "name": "to",
          "type": "address"
        },
        {
          "internalType": "uint256",
          "name": "tokenId",
          "type": "uint256"
        },
        {
          "internalType": "bytes",
          "name": "_data",
          "type": "bytes"
        }
      ],
      "name": "safeTransferFrom",
      "outputs": [],
      "stateMutability": "nonpayable",
      "type": "function"
    },
    {
      "inputs": [
        {
          "internalType": "address",
          "name": "operator",
          "type": "address"
        },
        {
          "internalType": "bool",
          "name": "approved",
          "type": "bool"
        }
      ],
      "name": "setApprovalForAll",
      "outputs": [],
      "stateMutability": "nonpayable",
      "type": "function"
    },
    {
      "inputs": [
        {
          "internalType": "bytes4",
          "name": "interfaceId",
          "type": "bytes4"
        }
      ],
      "name": "supportsInterface",
      "outputs": [
        {
          "internalType": "bool",
          "name": "",
          "type": "bool"
        }
      ],
      "stateMutability": "view",
      "type": "function",
      "constant": true
    },
    {
      "inputs": [],
      "name": "symbol",
      "outputs": [
        {
          "internalType": "string",
          "name": "",
          "type": "string"
        }
      ],
      "stateMutability": "view",
      "type": "function",
      "constant": true
    },
    {
      "inputs": [
        {
          "internalType": "address",
          "name": "from",
          "type": "address"
        },
        {
          "internalType": "address",
          "name": "to",
          "type": "address"
        },
        {
          "internalType": "uint256",
          "name": "tokenId",
          "type": "uint256"
        }
      ],
      "name": "transferFrom",
      "outputs": [],
      "stateMutability": "nonpayable",
      "type": "function"
    },
    {
      "inputs": [
        {
          "internalType": "string",
          "name": "uri",
          "type": "string"
        }
      ],
      "name": "mintEstate",
      "outputs": [
        {
          "internalType": "uint256",
          "name": "",
          "type": "uint256"
        }
      ],
      "stateMutability": "nonpayable",
      "type": "function"
    },
    {
      "inputs": [
        {
          "internalType": "uint256",
          "name": "tokenId",
          "type": "uint256"
        }
      ],
      "name": "tokenURI",
      "outputs": [
        {
          "internalType": "string",
          "name": "",
          "type": "string"
        }
      ],
      "stateMutability": "view",
      "type": "function",
      "constant": true
    }
  ],
  "bytecode": "0x60806040523480156200001157600080fd5b506040518060400160405280600f81526020017f52617265457374617465546f6b656e00000000000000000000000000000000008152506040518060400160405280600381526020017f524554000000000000000000000000000000000000000000000000000000000081525081600090805190602001906200009692919062000114565b508060019080519060200190620000af92919062000114565b50505033600660006101000a81548173ffffffffffffffffffffffffffffffffffffffff021916908373ffffffffffffffffffffffffffffffffffffffff1602179055506000600660146101000a81548160ff02191690831515021790555062000229565b8280546200012290620001c4565b90600052602060002090601f01602090048101928262000146576000855562000192565b82601f106200016157805160ff191683800117855562000192565b8280016001018555821562000192579182015b828111156200019157825182559160200191906001019062000174565b5b509050620001a19190620001a5565b5090565b5b80821115620001c0576000816000905550600101620001a6565b5090565b60006002820490506001821680620001dd57607f821691505b60208210811415620001f457620001f3620001fa565b5b50919050565b7f4e487b7100000000000000000000000000000000000000000000000000000000600052602260045260246000fd5b612a1e80620002396000396000f3fe608060405234801561001057600080fd5b506004361061010b5760003560e01c806370a08231116100a2578063b88d4fde11610071578063b88d4fde146102cc578063c2dfcc01146102e8578063c87b56dd14610318578063e985e9c514610348578063f851a440146103785761010b565b806370a082311461023057806394c584091461026057806395d89b4114610292578063a22cb465146102b05761010b565b806323b872dd116100de57806323b872dd146101aa57806326325bd3146101c657806342842e0e146101e45780636352211e146102005761010b565b806301ffc9a71461011057806306fdde0314610140578063081812fc1461015e578063095ea7b31461018e575b600080fd5b61012a60048036038101906101259190611c70565b610396565b60405161013791906123f1565b60405180910390f35b610148610478565b604051610155919061240c565b60405180910390f35b61017860048036038101906101739190611d03565b61050a565b6040516101859190612353565b60405180910390f35b6101a860048036038101906101a39190611c34565b61058f565b005b6101c460048036038101906101bf9190611b2e565b6106a7565b005b6101ce610707565b6040516101db91906123f1565b60405180910390f35b6101fe60048036038101906101f99190611b2e565b61071a565b005b61021a60048036038101906102159190611d03565b61073a565b6040516102279190612353565b60405180910390f35b61024a60048036038101906102459190611ac9565b6107ec565b604051610257919061260e565b60405180910390f35b61027a60048036038101906102759190611d03565b6108a4565b60405161028993929190612629565b60405180910390f35b61029a610976565b6040516102a7919061240c565b60405180910390f35b6102ca60048036038101906102c59190611bf8565b610a08565b005b6102e660048036038101906102e19190611b7d565b610b89565b005b61030260048036038101906102fd9190611cc2565b610beb565b60405161030f919061260e565b60405180910390f35b610332600480360381019061032d9190611d03565b610db1565b60405161033f919061240c565b60405180910390f35b610362600480360381019061035d9190611af2565b610ea1565b60405161036f91906123f1565b60405180910390f35b610380610f35565b60405161038d9190612353565b60405180910390f35b60007f80ac58cd000000000000000000000000000000000000000000000000000000007bffffffffffffffffffffffffffffffffffffffffffffffffffffffff1916827bffffffffffffffffffffffffffffffffffffffffffffffffffffffff1916148061046157507f5b5e139f000000000000000000000000000000000000000000000000000000007bffffffffffffffffffffffffffffffffffffffffffffffffffffffff1916827bffffffffffffffffffffffffffffffffffffffffffffffffffffffff1916145b80610471575061047082610f5b565b5b9050919050565b606060008054610487906128bc565b80601f01602080910402602001604051908101604052809291908181526020018280546104b3906128bc565b80156105005780601f106104d557610100808354040283529160200191610500565b820191906000526020600020905b8154815290600101906020018083116104e357829003601f168201915b5050505050905090565b600061051582610fc5565b610554576040517f08c379a000000000000000000000000000000000000000000000000000000000815260040161054b9061256e565b60405180910390fd5b6004600083815260200190815260200160002060009054906101000a900473ffffffffffffffffffffffffffffffffffffffff169050919050565b600061059a8261073a565b90508073ffffffffffffffffffffffffffffffffffffffff168373ffffffffffffffffffffffffffffffffffffffff16141561060b576040517f08c379a0000000000000000000000000000000000000000000000000000000008152600401610602906125ce565b60405180910390fd5b8073ffffffffffffffffffffffffffffffffffffffff1661062a611031565b73ffffffffffffffffffffffffffffffffffffffff161480610659575061065881610653611031565b610ea1565b5b610698576040517f08c379a000000000000000000000000000000000000000000000000000000000815260040161068f906124ce565b60405180910390fd5b6106a28383611039565b505050565b6106b86106b2611031565b826110f2565b6106f7576040517f08c379a00000000000000000000000000000000000000000000000000000000081526004016106ee906125ee565b60405180910390fd5b6107028383836111d0565b505050565b600660149054906101000a900460ff1681565b61073583838360405180602001604052806000815250610b89565b505050565b6000806002600084815260200190815260200160002060009054906101000a900473ffffffffffffffffffffffffffffffffffffffff169050600073ffffffffffffffffffffffffffffffffffffffff168173ffffffffffffffffffffffffffffffffffffffff1614156107e3576040517f08c379a00000000000000000000000000000000000000000000000000000000081526004016107da9061252e565b60405180910390fd5b80915050919050565b60008073ffffffffffffffffffffffffffffffffffffffff168273ffffffffffffffffffffffffffffffffffffffff16141561085d576040517f08c379a00000000000000000000000000000000000000000000000000000000081526004016108549061250e565b60405180910390fd5b600360008373ffffffffffffffffffffffffffffffffffffffff1673ffffffffffffffffffffffffffffffffffffffff168152602001908152602001600020549050919050565b60086020528060005260406000206000915090508060000154908060010160009054906101000a900473ffffffffffffffffffffffffffffffffffffffff16908060020180546108f3906128bc565b80601f016020809104026020016040519081016040528092919081815260200182805461091f906128bc565b801561096c5780601f106109415761010080835404028352916020019161096c565b820191906000526020600020905b81548152906001019060200180831161094f57829003601f168201915b5050505050905083565b606060018054610985906128bc565b80601f01602080910402602001604051908101604052809291908181526020018280546109b1906128bc565b80156109fe5780601f106109d3576101008083540402835291602001916109fe565b820191906000526020600020905b8154815290600101906020018083116109e157829003601f168201915b5050505050905090565b610a10611031565b73ffffffffffffffffffffffffffffffffffffffff168273ffffffffffffffffffffffffffffffffffffffff161415610a7e576040517f08c379a0000000000000000000000000000000000000000000000000000000008152600401610a759061248e565b60405180910390fd5b8060056000610a8b611031565b73ffffffffffffffffffffffffffffffffffffffff1673ffffffffffffffffffffffffffffffffffffffff16815260200190815260200160002060008473ffffffffffffffffffffffffffffffffffffffff1673ffffffffffffffffffffffffffffffffffffffff16815260200190815260200160002060006101000a81548160ff0219169083151502179055508173ffffffffffffffffffffffffffffffffffffffff16610b38611031565b73ffffffffffffffffffffffffffffffffffffffff167f17307eab39ab6107e8899845ad3d59bd9653f200f220920489ca2b5937696c3183604051610b7d91906123f1565b60405180910390a35050565b610b9a610b94611031565b836110f2565b610bd9576040517f08c379a0000000000000000000000000000000000000000000000000000000008152600401610bd0906125ee565b60405180910390fd5b610be58484848461121b565b50505050565b60003373ffffffffffffffffffffffffffffffffffffffff16600660009054906101000a900473ffffffffffffffffffffffffffffffffffffffff1673ffffffffffffffffffffffffffffffffffffffff161480610c555750600660149054906101000a900460ff165b610c94576040517f08c379a0000000000000000000000000000000000000000000000000000000008152600401610c8b906124ee565b60405180910390fd5b610c9e6007611277565b6000610caa600761128d565b9050610cb6338261129b565b60405180606001604052808281526020013373ffffffffffffffffffffffffffffffffffffffff16815260200184815250600860008381526020019081526020016000206000820151816000015560208201518160010160006101000a81548173ffffffffffffffffffffffffffffffffffffffff021916908373ffffffffffffffffffffffffffffffffffffffff1602179055506040820151816002019080519060200190610d679291906118ed565b509050507f27c50419f3095680c52cb6161c2e13f486b626b0707f0d7828a61d29df828f4f81338533604051610da09493929190612667565b60405180910390a180915050919050565b6060610dbc82610fc5565b610dfb576040517f08c379a0000000000000000000000000000000000000000000000000000000008152600401610df2906125ae565b60405180910390fd5b600860008381526020019081526020016000206002018054610e1c906128bc565b80601f0160208091040260200160405190810160405280929190818152602001828054610e48906128bc565b8015610e955780601f10610e6a57610100808354040283529160200191610e95565b820191906000526020600020905b815481529060010190602001808311610e7857829003601f168201915b50505050509050919050565b6000600560008473ffffffffffffffffffffffffffffffffffffffff1673ffffffffffffffffffffffffffffffffffffffff16815260200190815260200160002060008373ffffffffffffffffffffffffffffffffffffffff1673ffffffffffffffffffffffffffffffffffffffff16815260200190815260200160002060009054906101000a900460ff16905092915050565b600660009054906101000a900473ffffffffffffffffffffffffffffffffffffffff1681565b60007f01ffc9a7000000000000000000000000000000000000000000000000000000007bffffffffffffffffffffffffffffffffffffffffffffffffffffffff1916827bffffffffffffffffffffffffffffffffffffffffffffffffffffffff1916149050919050565b60008073ffffffffffffffffffffffffffffffffffffffff166002600084815260200190815260200160002060009054906101000a900473ffffffffffffffffffffffffffffffffffffffff1673ffffffffffffffffffffffffffffffffffffffff1614159050919050565b600033905090565b816004600083815260200190815260200160002060006101000a81548173ffffffffffffffffffffffffffffffffffffffff021916908373ffffffffffffffffffffffffffffffffffffffff160217905550808273ffffffffffffffffffffffffffffffffffffffff166110ac8361073a565b73ffffffffffffffffffffffffffffffffffffffff167f8c5be1e5ebec7d5bd14f71427d1e84f3dd0314c0f7b2291e5b200ac8c7c3b92560405160405180910390a45050565b60006110fd82610fc5565b61113c576040517f08c379a0000000000000000000000000000000000000000000000000000000008152600401611133906124ae565b60405180910390fd5b60006111478361073a565b90508073ffffffffffffffffffffffffffffffffffffffff168473ffffffffffffffffffffffffffffffffffffffff1614806111b657508373ffffffffffffffffffffffffffffffffffffffff1661119e8461050a565b73ffffffffffffffffffffffffffffffffffffffff16145b806111c757506111c68185610ea1565b5b91505092915050565b6111db8383836112b9565b7f2551e52b76fcf45da3be86be074ccf34478d9b6a93a61ded425abc77c3c8f0ff83838360405161120e9392919061236e565b60405180910390a1505050565b6112268484846111d0565b61123284848484611515565b611271576040517f08c379a00000000000000000000000000000000000000000000000000000000081526004016112689061242e565b60405180910390fd5b50505050565b6001816000016000828254019250508190555050565b600081600001549050919050565b6112b58282604051806020016040528060008152506116ac565b5050565b8273ffffffffffffffffffffffffffffffffffffffff166112d98261073a565b73ffffffffffffffffffffffffffffffffffffffff161461132f576040517f08c379a00000000000000000000000000000000000000000000000000000000081526004016113269061258e565b60405180910390fd5b600073ffffffffffffffffffffffffffffffffffffffff168273ffffffffffffffffffffffffffffffffffffffff16141561139f576040517f08c379a00000000000000000000000000000000000000000000000000000000081526004016113969061246e565b60405180910390fd5b6113aa838383611707565b6113b5600082611039565b6001600360008573ffffffffffffffffffffffffffffffffffffffff1673ffffffffffffffffffffffffffffffffffffffff168152602001908152602001600020600082825461140591906127d2565b925050819055506001600360008473ffffffffffffffffffffffffffffffffffffffff1673ffffffffffffffffffffffffffffffffffffffff168152602001908152602001600020600082825461145c919061277c565b92505081905550816002600083815260200190815260200160002060006101000a81548173ffffffffffffffffffffffffffffffffffffffff021916908373ffffffffffffffffffffffffffffffffffffffff160217905550808273ffffffffffffffffffffffffffffffffffffffff168473ffffffffffffffffffffffffffffffffffffffff167fddf252ad1be2c89b69c2b068fc378daa952ba7f163c4a11628f55a4df523b3ef60405160405180910390a4505050565b60006115368473ffffffffffffffffffffffffffffffffffffffff1661170c565b1561169f578373ffffffffffffffffffffffffffffffffffffffff1663150b7a0261155f611031565b8786866040518563ffffffff1660e01b815260040161158194939291906123a5565b602060405180830381600087803b15801561159b57600080fd5b505af19250505080156115cc57506040513d601f19601f820116820180604052508101906115c99190611c99565b60015b61164f573d80600081146115fc576040519150601f19603f3d011682016040523d82523d6000602084013e611601565b606091505b50600081511415611647576040517f08c379a000000000000000000000000000000000000000000000000000000000815260040161163e9061242e565b60405180910390fd5b805181602001fd5b63150b7a0260e01b7bffffffffffffffffffffffffffffffffffffffffffffffffffffffff1916817bffffffffffffffffffffffffffffffffffffffffffffffffffffffff1916149150506116a4565b600190505b949350505050565b6116b6838361171f565b6116c36000848484611515565b611702576040517f08c379a00000000000000000000000000000000000000000000000000000000081526004016116f99061242e565b60405180910390fd5b505050565b505050565b600080823b905060008111915050919050565b600073ffffffffffffffffffffffffffffffffffffffff168273ffffffffffffffffffffffffffffffffffffffff16141561178f576040517f08c379a00000000000000000000000000000000000000000000000000000000081526004016117869061254e565b60405180910390fd5b61179881610fc5565b156117d8576040517f08c379a00000000000000000000000000000000000000000000000000000000081526004016117cf9061244e565b60405180910390fd5b6117e460008383611707565b6001600360008473ffffffffffffffffffffffffffffffffffffffff1673ffffffffffffffffffffffffffffffffffffffff1681526020019081526020016000206000828254611834919061277c565b92505081905550816002600083815260200190815260200160002060006101000a81548173ffffffffffffffffffffffffffffffffffffffff021916908373ffffffffffffffffffffffffffffffffffffffff160217905550808273ffffffffffffffffffffffffffffffffffffffff16600073ffffffffffffffffffffffffffffffffffffffff167fddf252ad1be2c89b69c2b068fc378daa952ba7f163c4a11628f55a4df523b3ef60405160405180910390a45050565b8280546118f9906128bc565b90600052602060002090601f01602090048101928261191b5760008555611962565b82601f1061193457805160ff1916838001178555611962565b82800160010185558215611962579182015b82811115611961578251825591602001919060010190611946565b5b50905061196f9190611973565b5090565b5b8082111561198c576000816000905550600101611974565b5090565b60006119a361199e846126e4565b6126b3565b9050828152602081018484840111156119bb57600080fd5b6119c684828561287a565b509392505050565b60006119e16119dc84612714565b6126b3565b9050828152602081018484840111156119f957600080fd5b611a0484828561287a565b509392505050565b600081359050611a1b8161298c565b92915050565b600081359050611a30816129a3565b92915050565b600081359050611a45816129ba565b92915050565b600081519050611a5a816129ba565b92915050565b600082601f830112611a7157600080fd5b8135611a81848260208601611990565b91505092915050565b600082601f830112611a9b57600080fd5b8135611aab8482602086016119ce565b91505092915050565b600081359050611ac3816129d1565b92915050565b600060208284031215611adb57600080fd5b6000611ae984828501611a0c565b91505092915050565b60008060408385031215611b0557600080fd5b6000611b1385828601611a0c565b9250506020611b2485828601611a0c565b9150509250929050565b600080600060608486031215611b4357600080fd5b6000611b5186828701611a0c565b9350506020611b6286828701611a0c565b9250506040611b7386828701611ab4565b9150509250925092565b60008060008060808587031215611b9357600080fd5b6000611ba187828801611a0c565b9450506020611bb287828801611a0c565b9350506040611bc387828801611ab4565b925050606085013567ffffffffffffffff811115611be057600080fd5b611bec87828801611a60565b91505092959194509250565b60008060408385031215611c0b57600080fd5b6000611c1985828601611a0c565b9250506020611c2a85828601611a21565b9150509250929050565b60008060408385031215611c4757600080fd5b6000611c5585828601611a0c565b9250506020611c6685828601611ab4565b9150509250929050565b600060208284031215611c8257600080fd5b6000611c9084828501611a36565b91505092915050565b600060208284031215611cab57600080fd5b6000611cb984828501611a4b565b91505092915050565b600060208284031215611cd457600080fd5b600082013567ffffffffffffffff811115611cee57600080fd5b611cfa84828501611a8a565b91505092915050565b600060208284031215611d1557600080fd5b6000611d2384828501611ab4565b91505092915050565b611d3581612806565b82525050565b611d4481612818565b82525050565b6000611d5582612744565b611d5f818561275a565b9350611d6f818560208601612889565b611d788161297b565b840191505092915050565b6000611d8e8261274f565b611d98818561276b565b9350611da8818560208601612889565b611db18161297b565b840191505092915050565b6000611dc960328361276b565b91507f4552433732313a207472616e7366657220746f206e6f6e20455243373231526560008301527f63656976657220696d706c656d656e74657200000000000000000000000000006020830152604082019050919050565b6000611e2f601c8361276b565b91507f4552433732313a20746f6b656e20616c7265616479206d696e746564000000006000830152602082019050919050565b6000611e6f60248361276b565b91507f4552433732313a207472616e7366657220746f20746865207a65726f2061646460008301527f72657373000000000000000000000000000000000000000000000000000000006020830152604082019050919050565b6000611ed560198361276b565b91507f4552433732313a20617070726f766520746f2063616c6c6572000000000000006000830152602082019050919050565b6000611f15602c8361276b565b91507f4552433732313a206f70657261746f7220717565727920666f72206e6f6e657860008301527f697374656e7420746f6b656e00000000000000000000000000000000000000006020830152604082019050919050565b6000611f7b60388361276b565b91507f4552433732313a20617070726f76652063616c6c6572206973206e6f74206f7760008301527f6e6572206e6f7220617070726f76656420666f7220616c6c00000000000000006020830152604082019050919050565b6000611fe160238361276b565b91507f596f7520646f6e27742068617665207065726d697373696f6e20746f2061636360008301527f65737300000000000000000000000000000000000000000000000000000000006020830152604082019050919050565b6000612047602a8361276b565b91507f4552433732313a2062616c616e636520717565727920666f7220746865207a6560008301527f726f2061646472657373000000000000000000000000000000000000000000006020830152604082019050919050565b60006120ad60298361276b565b91507f4552433732313a206f776e657220717565727920666f72206e6f6e657869737460008301527f656e7420746f6b656e00000000000000000000000000000000000000000000006020830152604082019050919050565b600061211360208361276b565b91507f4552433732313a206d696e7420746f20746865207a65726f20616464726573736000830152602082019050919050565b6000612153602c8361276b565b91507f4552433732313a20617070726f76656420717565727920666f72206e6f6e657860008301527f697374656e7420746f6b656e00000000000000000000000000000000000000006020830152604082019050919050565b60006121b960298361276b565b91507f4552433732313a207472616e73666572206f6620746f6b656e2074686174206960008301527f73206e6f74206f776e00000000000000000000000000000000000000000000006020830152604082019050919050565b600061221f602f8361276b565b91507f4552433732314d657461646174613a2055524920717565727920666f72206e6f60008301527f6e6578697374656e7420746f6b656e00000000000000000000000000000000006020830152604082019050919050565b600061228560218361276b565b91507f4552433732313a20617070726f76616c20746f2063757272656e74206f776e6560008301527f72000000000000000000000000000000000000000000000000000000000000006020830152604082019050919050565b60006122eb60318361276b565b91507f4552433732313a207472616e736665722063616c6c6572206973206e6f74206f60008301527f776e6572206e6f7220617070726f7665640000000000000000000000000000006020830152604082019050919050565b61234d81612870565b82525050565b60006020820190506123686000830184611d2c565b92915050565b60006060820190506123836000830186611d2c565b6123906020830185611d2c565b61239d6040830184612344565b949350505050565b60006080820190506123ba6000830187611d2c565b6123c76020830186611d2c565b6123d46040830185612344565b81810360608301526123e68184611d4a565b905095945050505050565b60006020820190506124066000830184611d3b565b92915050565b600060208201905081810360008301526124268184611d83565b905092915050565b6000602082019050818103600083015261244781611dbc565b9050919050565b6000602082019050818103600083015261246781611e22565b9050919050565b6000602082019050818103600083015261248781611e62565b9050919050565b600060208201905081810360008301526124a781611ec8565b9050919050565b600060208201905081810360008301526124c781611f08565b9050919050565b600060208201905081810360008301526124e781611f6e565b9050919050565b6000602082019050818103600083015261250781611fd4565b9050919050565b600060208201905081810360008301526125278161203a565b9050919050565b60006020820190508181036000830152612547816120a0565b9050919050565b6000602082019050818103600083015261256781612106565b9050919050565b6000602082019050818103600083015261258781612146565b9050919050565b600060208201905081810360008301526125a7816121ac565b9050919050565b600060208201905081810360008301526125c781612212565b9050919050565b600060208201905081810360008301526125e781612278565b9050919050565b60006020820190508181036000830152612607816122de565b9050919050565b60006020820190506126236000830184612344565b92915050565b600060608201905061263e6000830186612344565b61264b6020830185611d2c565b818103604083015261265d8184611d83565b9050949350505050565b600060808201905061267c6000830187612344565b6126896020830186611d2c565b818103604083015261269b8185611d83565b90506126aa6060830184611d2c565b95945050505050565b6000604051905081810181811067ffffffffffffffff821117156126da576126d961294c565b5b8060405250919050565b600067ffffffffffffffff8211156126ff576126fe61294c565b5b601f19601f8301169050602081019050919050565b600067ffffffffffffffff82111561272f5761272e61294c565b5b601f19601f8301169050602081019050919050565b600081519050919050565b600081519050919050565b600082825260208201905092915050565b600082825260208201905092915050565b600061278782612870565b915061279283612870565b9250827fffffffffffffffffffffffffffffffffffffffffffffffffffffffffffffffff038211156127c7576127c66128ee565b5b828201905092915050565b60006127dd82612870565b91506127e883612870565b9250828210156127fb576127fa6128ee565b5b828203905092915050565b600061281182612850565b9050919050565b60008115159050919050565b60007fffffffff0000000000000000000000000000000000000000000000000000000082169050919050565b600073ffffffffffffffffffffffffffffffffffffffff82169050919050565b6000819050919050565b82818337600083830152505050565b60005b838110156128a757808201518184015260208101905061288c565b838111156128b6576000848401525b50505050565b600060028204905060018216806128d457607f821691505b602082108114156128e8576128e761291d565b5b50919050565b7f4e487b7100000000000000000000000000000000000000000000000000000000600052601160045260246000fd5b7f4e487b7100000000000000000000000000000000000000000000000000000000600052602260045260246000fd5b7f4e487b7100000000000000000000000000000000000000000000000000000000600052604160045260246000fd5b6000601f19601f8301169050919050565b61299581612806565b81146129a057600080fd5b50565b6129ac81612818565b81146129b757600080fd5b50565b6129c381612824565b81146129ce57600080fd5b50565b6129da81612870565b81146129e557600080fd5b5056fea2646970667358221220a5f29806034e2f54451ede35245990509456eec675c0b95b31b9b4069951f51164736f6c63430008000033",
  "immutableReferences": {},
  "source": "// SPDX-License-Identifier: MIT\n\npragma solidity ^0.8.0;\n\nimport \"../node_modules/@openzeppelin/contracts/token/ERC721/ERC721.sol\";\nimport \"../node_modules/@openzeppelin/contracts/utils/Counters.sol\";\nimport \"../contracts/access/Permission.sol\";\n\ncontract RareEstateToken is ERC721, Permission {\n    using Counters for Counters.Counter;\n    Counters.Counter private _tokenIds;\n\n    constructor() ERC721(\"RareEstateToken\", \"RET\") Permission() {}\n\n    struct Estate {\n        uint256 id;\n        address creator;\n        string uri;\n    }\n\n    event EstateMinted(\n        uint256 tokenId,\n        address creator,\n        string uri,\n        address owner\n    );\n    event EstateTransferred(address from, address to, uint256 tokenId);\n    mapping(uint256 => Estate) public Estates;\n\n    function mintEstate(string memory uri)\n        public\n        hasPermission()\n        returns (uint256)\n    {\n        _tokenIds.increment();\n        uint256 newItemId = _tokenIds.current();\n        _safeMint(msg.sender, newItemId);\n\n        Estates[newItemId] = Estate(newItemId, msg.sender, uri);\n        emit EstateMinted(newItemId, msg.sender, uri, msg.sender);\n\n        return newItemId;\n    }\n\n    function tokenURI(uint256 tokenId)\n        public\n        view\n        override\n        returns (string memory)\n    {\n        require(\n            _exists(tokenId),\n            \"ERC721Metadata: URI query for nonexistent token\"\n        );\n\n        return Estates[tokenId].uri;\n    }\n\n    function _transfer(\n        address from,\n        address to,\n        uint256 tokenId\n    ) internal override {\n        super._transfer(from, to, tokenId);\n        emit EstateTransferred(from, to, tokenId);\n    }\n}\n",
  "sourcePath": "/Users/Ouu/Documents/coding/projects/dApp/rare-estates-sandbox/contracts/RareEstateToken.sol",
  "compiler": {
    "name": "solc",
    "version": "0.8.0+commit.c7dfd78e.Emscripten.clang"
  },
  "schemaVersion": "3.3.4",
  "updatedAt": "2021-06-15T04:47:00.500Z",
  "networkType": "ethereum",
  "devdoc": {
    "kind": "dev",
    "methods": {
      "approve(address,uint256)": {
        "details": "See {IERC721-approve}."
      },
      "balanceOf(address)": {
        "details": "See {IERC721-balanceOf}."
      },
      "getApproved(uint256)": {
        "details": "See {IERC721-getApproved}."
      },
      "isApprovedForAll(address,address)": {
        "details": "See {IERC721-isApprovedForAll}."
      },
      "name()": {
        "details": "See {IERC721Metadata-name}."
      },
      "ownerOf(uint256)": {
        "details": "See {IERC721-ownerOf}."
      },
      "safeTransferFrom(address,address,uint256)": {
        "details": "See {IERC721-safeTransferFrom}."
      },
      "safeTransferFrom(address,address,uint256,bytes)": {
        "details": "See {IERC721-safeTransferFrom}."
      },
      "setApprovalForAll(address,bool)": {
        "details": "See {IERC721-setApprovalForAll}."
      },
      "supportsInterface(bytes4)": {
        "details": "See {IERC165-supportsInterface}."
      },
      "symbol()": {
        "details": "See {IERC721Metadata-symbol}."
      },
      "tokenURI(uint256)": {
        "details": "See {IERC721Metadata-tokenURI}."
      },
      "transferFrom(address,address,uint256)": {
        "details": "See {IERC721-transferFrom}."
      }
    },
    "version": 1
  },
  "userdoc": {
    "kind": "user",
    "methods": {},
    "version": 1
  }
}