{
  "contractName": "RareEstateMarketplace",
  "abi": [
    {
      "anonymous": false,
      "inputs": [
        {
          "indexed": false,
          "internalType": "uint256",
          "name": "saleId",
          "type": "uint256"
        },
        {
          "indexed": false,
          "internalType": "uint256",
          "name": "tokenId",
          "type": "uint256"
        },
        {
          "indexed": false,
          "internalType": "address",
          "name": "tokenAddress",
          "type": "address"
        },
        {
          "indexed": false,
          "internalType": "uint256",
          "name": "price",
          "type": "uint256"
        },
        {
          "indexed": false,
          "internalType": "address",
          "name": "seller",
          "type": "address"
        }
      ],
      "name": "EstateAdded",
      "type": "event"
    },
    {
      "anonymous": false,
      "inputs": [
        {
          "indexed": false,
          "internalType": "uint256",
          "name": "saleId",
          "type": "uint256"
        },
        {
          "indexed": false,
          "internalType": "uint256",
          "name": "tokenId",
          "type": "uint256"
        },
        {
          "indexed": false,
          "internalType": "address",
          "name": "tokenAddress",
          "type": "address"
        },
        {
          "indexed": false,
          "internalType": "uint256",
          "name": "price",
          "type": "uint256"
        },
        {
          "indexed": false,
          "internalType": "address",
          "name": "seller",
          "type": "address"
        },
        {
          "indexed": false,
          "internalType": "address",
          "name": "buyer",
          "type": "address"
        }
      ],
      "name": "EstateSold",
      "type": "event"
    },
    {
      "inputs": [
        {
          "internalType": "uint256",
          "name": "",
          "type": "uint256"
        }
      ],
      "name": "saleEstates",
      "outputs": [
        {
          "internalType": "uint256",
          "name": "id",
          "type": "uint256"
        },
        {
          "internalType": "address",
          "name": "tokenAddress",
          "type": "address"
        },
        {
          "internalType": "uint256",
          "name": "tokenId",
          "type": "uint256"
        },
        {
          "internalType": "address payable",
          "name": "seller",
          "type": "address"
        },
        {
          "internalType": "uint256",
          "name": "price",
          "type": "uint256"
        },
        {
          "internalType": "bool",
          "name": "isSelling",
          "type": "bool"
        }
      ],
      "stateMutability": "view",
      "type": "function",
      "constant": true
    },
    {
      "inputs": [
        {
          "internalType": "uint256",
          "name": "tokenId",
          "type": "uint256"
        },
        {
          "internalType": "address",
          "name": "tokenAddress",
          "type": "address"
        },
        {
          "internalType": "uint256",
          "name": "price",
          "type": "uint256"
        }
      ],
      "name": "addItemToMarket",
      "outputs": [
        {
          "internalType": "uint256",
          "name": "",
          "type": "uint256"
        }
      ],
      "stateMutability": "nonpayable",
      "type": "function"
    },
    {
      "inputs": [
        {
          "internalType": "uint256",
          "name": "id",
          "type": "uint256"
        }
      ],
      "name": "buyItem",
      "outputs": [],
      "stateMutability": "payable",
      "type": "function",
      "payable": true
    }
  ],
  "bytecode": "0x608060405234801561001057600080fd5b5061125e806100206000396000f3fe6080604052600436106100345760003560e01c80634abc220214610039578063d778131514610076578063e7fb74c7146100b8575b600080fd5b34801561004557600080fd5b50610060600480360381019061005b9190610dd8565b6100d4565b60405161006d9190611029565b60405180910390f35b34801561008257600080fd5b5061009d60048036038101906100989190610daf565b610599565b6040516100af96959493929190611044565b60405180910390f35b6100d260048036038101906100cd9190610daf565b610632565b005b6000828460008290503373ffffffffffffffffffffffffffffffffffffffff168173ffffffffffffffffffffffffffffffffffffffff16636352211e846040518263ffffffff1660e01b815260040161012d9190611029565b60206040518083038186803b15801561014557600080fd5b505afa158015610159573d6000803e3d6000fd5b505050506040513d601f19601f8201168201806040525081019061017d9190610d86565b73ffffffffffffffffffffffffffffffffffffffff161461019d57600080fd5b858760008290503073ffffffffffffffffffffffffffffffffffffffff168173ffffffffffffffffffffffffffffffffffffffff1663081812fc846040518263ffffffff1660e01b81526004016101f49190611029565b60206040518083038186803b15801561020c57600080fd5b505afa158015610220573d6000803e3d6000fd5b505050506040513d601f19601f820116820180604052508101906102449190610d86565b73ffffffffffffffffffffffffffffffffffffffff161461026457600080fd5b600160008a73ffffffffffffffffffffffffffffffffffffffff1673ffffffffffffffffffffffffffffffffffffffff16815260200190815260200160002060008b815260200190815260200160002060009054906101000a900460ff1615610302576040517f08c379a00000000000000000000000000000000000000000000000000000000081526004016102f990610fc9565b60405180910390fd5b60008080549050905060006040518060c001604052808381526020018c73ffffffffffffffffffffffffffffffffffffffff1681526020018d81526020013373ffffffffffffffffffffffffffffffffffffffff1681526020018b81526020016001151581525090806001815401808255809150506001900390600052602060002090600602016000909190919091506000820151816000015560208201518160010160006101000a81548173ffffffffffffffffffffffffffffffffffffffff021916908373ffffffffffffffffffffffffffffffffffffffff1602179055506040820151816002015560608201518160030160006101000a81548173ffffffffffffffffffffffffffffffffffffffff021916908373ffffffffffffffffffffffffffffffffffffffff1602179055506080820151816004015560a08201518160050160006101000a81548160ff021916908315150217905550505060018060008c73ffffffffffffffffffffffffffffffffffffffff1673ffffffffffffffffffffffffffffffffffffffff16815260200190815260200160002060008d815260200190815260200160002060006101000a81548160ff0219169083151502179055508060008281548110610503577f4e487b7100000000000000000000000000000000000000000000000000000000600052603260045260246000fd5b90600052602060002090600602016000015414610549577f4e487b7100000000000000000000000000000000000000000000000000000000600052600160045260246000fd5b7f3ec69c982027f9b06751e7ee9d3e903cc3f989957dd151f256e5d93040ad9ed0818c8c8c336040516105809594939291906110a5565b60405180910390a1809750505050505050509392505050565b600081815481106105a957600080fd5b90600052602060002090600602016000915090508060000154908060010160009054906101000a900473ffffffffffffffffffffffffffffffffffffffff16908060020154908060030160009054906101000a900473ffffffffffffffffffffffffffffffffffffffff16908060040154908060050160009054906101000a900460ff16905086565b80600080549050811080156106915750806000828154811061067d577f4e487b7100000000000000000000000000000000000000000000000000000000600052603260045260246000fd5b906000526020600020906006020160000154145b6106d0576040517f08c379a00000000000000000000000000000000000000000000000000000000081526004016106c790611009565b60405180910390fd5b816000818154811061070b577f4e487b7100000000000000000000000000000000000000000000000000000000600052603260045260246000fd5b906000526020600020906006020160050160009054906101000a900460ff16610769576040517f08c379a000000000000000000000000000000000000000000000000000000000815260040161076090610fe9565b60405180910390fd5b600083815481106107a3577f4e487b7100000000000000000000000000000000000000000000000000000000600052603260045260246000fd5b906000526020600020906006020160010160009054906101000a900473ffffffffffffffffffffffffffffffffffffffff166000848154811061080f577f4e487b7100000000000000000000000000000000000000000000000000000000600052603260045260246000fd5b90600052602060002090600602016002015460008290503073ffffffffffffffffffffffffffffffffffffffff168173ffffffffffffffffffffffffffffffffffffffff1663081812fc846040518263ffffffff1660e01b81526004016108769190611029565b60206040518083038186803b15801561088e57600080fd5b505afa1580156108a2573d6000803e3d6000fd5b505050506040513d601f19601f820116820180604052508101906108c69190610d86565b73ffffffffffffffffffffffffffffffffffffffff16146108e657600080fd5b60008681548110610920577f4e487b7100000000000000000000000000000000000000000000000000000000600052603260045260246000fd5b906000526020600020906006020160040154341015610974576040517f08c379a000000000000000000000000000000000000000000000000000000000815260040161096b90610fa9565b60405180910390fd5b600086815481106109ae577f4e487b7100000000000000000000000000000000000000000000000000000000600052603260045260246000fd5b906000526020600020906006020160030160009054906101000a900473ffffffffffffffffffffffffffffffffffffffff1673ffffffffffffffffffffffffffffffffffffffff163373ffffffffffffffffffffffffffffffffffffffff161415610a1857600080fd5b6000808781548110610a53577f4e487b7100000000000000000000000000000000000000000000000000000000600052603260045260246000fd5b90600052602060002090600602016040518060c0016040529081600082015481526020016001820160009054906101000a900473ffffffffffffffffffffffffffffffffffffffff1673ffffffffffffffffffffffffffffffffffffffff1673ffffffffffffffffffffffffffffffffffffffff168152602001600282015481526020016003820160009054906101000a900473ffffffffffffffffffffffffffffffffffffffff1673ffffffffffffffffffffffffffffffffffffffff1673ffffffffffffffffffffffffffffffffffffffff168152602001600482015481526020016005820160009054906101000a900460ff16151515158152505090506000808881548110610b8e577f4e487b7100000000000000000000000000000000000000000000000000000000600052603260045260246000fd5b906000526020600020906006020160050160006101000a81548160ff021916908315150217905550600060016000836020015173ffffffffffffffffffffffffffffffffffffffff1673ffffffffffffffffffffffffffffffffffffffff16815260200190815260200160002060008360400151815260200190815260200160002060006101000a81548160ff021916908315150217905550806020015173ffffffffffffffffffffffffffffffffffffffff166342842e0e82606001513384604001516040518463ffffffff1660e01b8152600401610c7093929190610f72565b600060405180830381600087803b158015610c8a57600080fd5b505af1158015610c9e573d6000803e3d6000fd5b50505050806060015173ffffffffffffffffffffffffffffffffffffffff166108fc349081150290604051600060405180830381858888f19350505050158015610cec573d6000803e3d6000fd5b507f9b436981c5f0c5f1cf482bc8d97769353c7a6d84ad3143da3cc6e970d6ab547b87826040015183602001518460800151856060015133604051610d36969594939291906110f8565b60405180910390a150505050505050565b600081359050610d56816111fa565b92915050565b600081519050610d6b816111fa565b92915050565b600081359050610d8081611211565b92915050565b600060208284031215610d9857600080fd5b6000610da684828501610d5c565b91505092915050565b600060208284031215610dc157600080fd5b6000610dcf84828501610d71565b91505092915050565b600080600060608486031215610ded57600080fd5b6000610dfb86828701610d71565b9350506020610e0c86828701610d47565b9250506040610e1d86828701610d71565b9150509250925092565b610e30816111c4565b82525050565b610e3f8161117c565b82525050565b610e4e8161116a565b82525050565b610e5d8161118e565b82525050565b6000610e70601583611159565b91507f4e6f7420656e6f7567682066756e64732073656e7400000000000000000000006000830152602082019050919050565b6000610eb0601383611159565b91507f416c726561647920757020666f722073616c65000000000000000000000000006000830152602082019050919050565b6000610ef0600c83611159565b91507f4e6f7420666f722073616c6500000000000000000000000000000000000000006000830152602082019050919050565b6000610f30601383611159565b91507f436f756c64206e6f742066696e64206974656d000000000000000000000000006000830152602082019050919050565b610f6c816111ba565b82525050565b6000606082019050610f876000830186610e27565b610f946020830185610e45565b610fa16040830184610f63565b949350505050565b60006020820190508181036000830152610fc281610e63565b9050919050565b60006020820190508181036000830152610fe281610ea3565b9050919050565b6000602082019050818103600083015261100281610ee3565b9050919050565b6000602082019050818103600083015261102281610f23565b9050919050565b600060208201905061103e6000830184610f63565b92915050565b600060c0820190506110596000830189610f63565b6110666020830188610e45565b6110736040830187610f63565b6110806060830186610e36565b61108d6080830185610f63565b61109a60a0830184610e54565b979650505050505050565b600060a0820190506110ba6000830188610f63565b6110c76020830187610f63565b6110d46040830186610e45565b6110e16060830185610f63565b6110ee6080830184610e45565b9695505050505050565b600060c08201905061110d6000830189610f63565b61111a6020830188610f63565b6111276040830187610e45565b6111346060830186610f63565b6111416080830185610e27565b61114e60a0830184610e45565b979650505050505050565b600082825260208201905092915050565b60006111758261119a565b9050919050565b60006111878261119a565b9050919050565b60008115159050919050565b600073ffffffffffffffffffffffffffffffffffffffff82169050919050565b6000819050919050565b60006111cf826111d6565b9050919050565b60006111e1826111e8565b9050919050565b60006111f38261119a565b9050919050565b6112038161116a565b811461120e57600080fd5b50565b61121a816111ba565b811461122557600080fd5b5056fea2646970667358221220dbaae7b726d1b8a0939cf2a63669d5f00dd7e184332a21514c9b28970ec9867264736f6c63430008000033",
  "immutableReferences": {},
  "source": "// SPDX-License-Identifier: MIT\n\npragma solidity ^0.8.0;\n\nimport \"../node_modules/@openzeppelin/contracts/token/ERC721/ERC721.sol\";\n\ncontract RareEstateMarketplace {\n    struct EstateForSale {\n        uint256 id;\n        address tokenAddress;\n        uint256 tokenId;\n        address payable seller;\n        uint256 price;\n        bool isSelling;\n    }\n\n    EstateForSale[] public saleEstates;\n\n    //  Token address => TokenId => isSelling\n    mapping(address => mapping(uint256 => bool)) activeItems;\n\n    event EstateAdded(\n        uint256 saleId,\n        uint256 tokenId,\n        address tokenAddress,\n        uint256 price,\n        address seller\n    );\n    event EstateSold(\n        uint256 saleId,\n        uint256 tokenId,\n        address tokenAddress,\n        uint256 price,\n        address seller,\n        address buyer\n    );\n\n    modifier OnlyItemOwner(address tokenAddress, uint256 tokenId) {\n        IERC721 tokenContract = IERC721(tokenAddress);\n        require(tokenContract.ownerOf(tokenId) == msg.sender);\n        _;\n    }\n\n    modifier HasTransferApproval(address tokenAddress, uint256 tokenId) {\n        IERC721 tokenContract = IERC721(tokenAddress);\n        require(tokenContract.getApproved(tokenId) == address(this));\n        _;\n    }\n\n    modifier EstateExists(uint256 id) {\n        require(\n            id < saleEstates.length && saleEstates[id].id == id,\n            \"Could not find item\"\n        );\n        _;\n    }\n\n    modifier IsSelling(uint256 id) {\n        require(saleEstates[id].isSelling, \"Not for sale\");\n        _;\n    }\n\n    function addItemToMarket(\n        uint256 tokenId,\n        address tokenAddress,\n        uint256 price\n    )\n        external\n        OnlyItemOwner(tokenAddress, tokenId)\n        HasTransferApproval(tokenAddress, tokenId)\n        returns (uint256)\n    {\n        require(!activeItems[tokenAddress][tokenId], \"Already up for sale\");\n        uint256 newItemId = saleEstates.length;\n        saleEstates.push(\n            EstateForSale(\n                newItemId,\n                tokenAddress,\n                tokenId,\n                payable(msg.sender),\n                price,\n                true\n            )\n        );\n        activeItems[tokenAddress][tokenId] = true;\n\n        assert(saleEstates[newItemId].id == newItemId);\n        emit EstateAdded(newItemId, tokenId, tokenAddress, price, msg.sender);\n        return newItemId;\n    }\n\n    function buyItem(uint256 id)\n        external\n        payable\n        EstateExists(id)\n        IsSelling(id)\n        HasTransferApproval(\n            saleEstates[id].tokenAddress,\n            saleEstates[id].tokenId\n        )\n    {\n        require(msg.value >= saleEstates[id].price, \"Not enough funds sent\");\n        require(msg.sender != saleEstates[id].seller);\n\n        EstateForSale memory _item = saleEstates[id];\n\n        saleEstates[id].isSelling = false;\n        activeItems[_item.tokenAddress][_item.tokenId] = false;\n\n        IERC721(_item.tokenAddress).safeTransferFrom(\n            _item.seller,\n            msg.sender,\n            _item.tokenId\n        );\n        _item.seller.transfer(msg.value);\n        emit EstateSold(\n            id,\n            _item.tokenId,\n            _item.tokenAddress,\n            _item.price,\n            _item.seller,\n            msg.sender\n        );\n    }\n}\n",
  "sourcePath": "/Users/Ouu/Documents/coding/projects/dApp/rare-estates-sandbox/contracts/RareEstateMarketplace.sol",
  "compiler": {
    "name": "solc",
    "version": "0.8.0+commit.c7dfd78e.Emscripten.clang"
  },
  "schemaVersion": "3.3.4",
  "updatedAt": "2021-06-15T04:48:02.774Z",
  "networkType": "ethereum",
  "devdoc": {
    "kind": "dev",
    "methods": {},
    "version": 1
  },
  "userdoc": {
    "kind": "user",
    "methods": {},
    "version": 1
  }
}